:1000000038C70320C1800300D9DE0100A57A0300B0
:10001000A70A02020002000004180FAC20690001C8
:1000200000000000000000000000000000000000D0
:100030000000000048B803000000000000000000BD
:100040000000000000000000FFFFFFFFFFFFFFFFB8
:10005000FFFFFFFFFFFFFFFFFFFFFFFFFFFFFFFFB0
:1000600000700F000000000000000000FFFFFFFF15
:10007000FFFFFFFF1C000000000000000000000068
:100080000000000000000000ECFF0320ECFF032054
:1000900038C70320F415040092810300D8BD032063
:0C00A000BC100020000010000000000058
:1002000038C70320C1800300D9DE0100A57A0300AE
:10021000C3910200A97A0300AD7A03000000000038
:10022000000000000000000000000000C79900006E
:10023000B17A0300AB7A000043A30000EBA70000F3
:10024000DF9102005D2D03008D790000B97A030073
:1002500029280300952D0300632D0300652D03005D
:100260005F2D03002D4B0300894D030009AF0200F1
:10027000A1560200B97A0300B97A03003B7D03005E
:10028000B97A0300B97A0300A94D0300B97A0300D3
:10029000B97A0300B97A0300B97A0300B97A030086
:1002A000B97A0300B97A0300B97A0300B97A030076
:1002B000972D0300612D0300AF0F0300C72D03002E
:1002C000B97A03003D7F0300B97A0300B97A0300CD
:1002D000B97A0300B97A0300B97A0300B97A030046
:1002E000B97A0300B97A0300B97A0300B97A030036
:1002F000B97A0300B97A0300B97A0300B97A030026
:10030000B97A0300B97A0300000000000012034824
:10031000016830BF41F000410160704700BF4C31BF
:100320000E40000080B5002000F0E6FA012002BD7A
:100330001E482DE9F04100688189007D081A1446A5
:100340009846C61E0027002506E0B2B2B9B2404664
:1003500000F020FDFF1C6D1CE8B2A042F5D3002088
:1003600000F0CAFA0120BDE8F0812DE9F8430F4EF4
:1003700030688189007D081A90469946C71E00257D
:10038000002409E000F014F8ED1C00F011F8AD1C99
:1003900000F00EF8ED1C641CE0B24045F2D330686A
:1003A000002100F0E9FA0120BDE8F283BCD7032068
:1003B000BAB2A9B2484600F0EDBC704780B501F072
:1003C0009DF8FF2805D0032803D2DFF89817085CB2
:1003D00002BD002002BD10B50168DFF88C270B8834
:1003E00013804B88538049791171016809795171E3
:1003F0004FF48A51D18001688979890644BF4FF44E
:100400008B51D180DFF8641783690A783BB9C088C3
:10041000DFF85C37188002F0FD00087010BD42F074
:1004200002020A7016228169DFF84847204601F06F
:10043000EDF90020207010BD80B5002001F027FAF2
:10044000FF2001F0B4F801F030FA00F01FFD014682
:100450000122DFF8100701F043FADFF80C37DFF86C
:100460001827DFF81807522101F0F5FA01F0A8FB70
:1004700001F038FC01F047FD01F040FE02F0A3FD61
:1004800002F0E2FD02F0E2FDBDE8014000F0D0BD67
:10049000704780B502F0DBFE20B904F0D5FB08B947
:1004A00004F0BCFC04F013FDBDE8014004F01EBDE7
:1004B00030B500234FF6FF72DFF8C44601E05B1C45
:1004C0009BB234F8335095420DD08542F7D1B0F548
:1004D0007C4F06DB04EBC3056D888D4201D00D0017
:1004E000EDD1184630BD104630BD10B50446FFF7BB
:1004F000DFFF0146DFF88C0600884FF6FF7291425D
:1005000003D12246DFF8801606E0DFF8742602EBFE
:10051000C1014A68DFF87416BDE8104004F030BD30
:10052000DFF86C06006800B1008A704710B5044619
:10053000DFF860060078002882B03CD004F0FAFDB5
:100540000246DFF85416022004F01AFD20684188A4
:1005500000914379A289DFF84416022004F010FDCF
:10056000022004F0CBFC20B12068218A4088FFF7EC
:10057000BCFFE07B28B1228ADFF82416022004F0B9
:10058000FFFCE07CDFF81C160090A0680278A37CDA
:10059000022004F0F5FC207DA1890A1AA16801441B
:1005A000012392B2022004F0DEFDBDE81C40AAA1A6
:1005B000022004F0DFBC13BD10B50446206840796A
:1005C00000F09CFFFF281DD0DFF8DC15227F01EB37
:1005D0000010017B914215D1226840881188884221
:1005E00006D04FF6FF7399420CD1B0F5004F09DAEF
:1005F0002079022818BF032806D11189507904F008
:100600001FFC08B9002010BDA07B0028204603D0A5
:10061000BDE8104004F03ABEBDE8104004F066BEEC
:1006200070B5144682B01A462378DFF880555B0710
:100630004CBF052303239A4205D2009313462A4652
:10064000DFF86C1533E0089E306031710698F08059
:10065000B460B281207800F00100B0732078800887
:1006600000F00100F0732078C00800F00100707500
:1006700001203075F07B30B10121204600F08AFB6B
:10068000317D891C31753082307DB389411C3175D3
:10069000205CB074481CC9B23075C2B2615CF174A0
:1006A000934209D2C0B200902A46DFF80815022012
:1006B00004F060FC002076BD0798B06105F011F9E8
:1006C0003077012076BD2DE9FE430F46DFF8E814B0
:1006D000DFF8E854DFF8B88491EC080B85EC080BE0
:1006E0000B9E0295019600240A9900913946FFF766
:1006F00097FF002867D0C8F80050A87CDFF8C01426
:1007000008702846FFF712FF2846FFF764FE2846C8
:1007100005F0B6F920BB2EBB042F18BF052F03D060
:10072000022F18BF032F01D1012200E00022E98827
:10073000286801914188009101210388E87C00F03C
:100740001DF990B12868807980060ED4DFF87444D2
:10075000012020700121284600F00EF900202070B1
:10076000012430E0307D80072DD528684079FF28AE
:1007700025D10027DFF8F06300F088FBF9B2814251
:1007800021D2F8B200F0BEFE8146F8B200F082FB42
:1007900098B1286841882A8A484600F0F0FD60B187
:1007A0002846FFF718FE286880F8059086F8049020
:1007B0002846FFF701FF00B101247F1CDCE7284633
:1007C000FFF7FAFE044600F063FA1621DFF8A403EF
:1007D00005F072F90020C8F800002046BDE8FE834D
:1007E000DFF8E4030178491C017001F07F007047D5
:1007F000DFF878130A78002814BF42F0010002F0F5
:10080000FE0008707047DFF8C4130870704778B1B5
:10081000DFF8B8130978012903D1018841F04001BC
:1008200005E0022904D101884FF6BF721140018012
:10083000704778B1DFF898130A78012A04D1DFF8FD
:10084000942312780A7001E0022A03D1017841F062
:1008500010010170704700005D00000030B5C34C0E
:100860002378D90783B001D500203EBDC8490A6866
:10087000BD4972B112689579AD0603D5CD8845F0B2
:100880002005CD809279520603D5CA8842F04002F5
:10089000CA80BA4A15786D07C94D2D784CBFD570FE
:1008A00055709B0709D5B4480188B24805F03BFB59
:1008B000217801F0FD0121703EBDAD4B1C884FF643
:1008C000FC739C4209DA019000920A46AA48038808
:1008D0002146002005F004FD3EBD00901346A648C9
:1008E0000288204605F0D6FC3EBD0020B6E70A4649
:1008F0000146A748006801E00021F8E770B504460A
:100900000E462079010018BF012815460BD1A068BA
:100910000078C00601D5300005D0A07B002804BFB8
:10092000E07C0B2801D1002070BD93490020088095
:10093000607DE17B00280CBF0820002011B900F089
:10094000BCF906E040F0040000F0B7F9208A00F09E
:10095000C3F9A07C00F0B1F90B2000F0AEF9E07C07
:1009600000F0ABF9304600F0A8F92046FFF733FD60
:100970002846BDE8704071E70022BFE770B5044625
:10098000954800781D4601288E4B01D01E7816B17F
:100990000020187070BD82F001020A4301D10020CE
:1009A00070BD00281EBF04984FF65742904206D0F3
:1009B0000A4601462346284604F034FA00B10120D5
:1009C00070BD000038B5D2885224950648BF49242E
:1009D000550544BF083CE4B2150544BF083CE4B2E9
:1009E000120444BFA41EE4B203284FF6FD7310D8CE
:1009F000DFE800F00204080D0B460AE0C8B206F07A
:100A0000A9F802E0C8B206F0CFFA034601E0641E7E
:100A1000E4B2184604F025FA201AC0B232BD42549E
:100A20000844120A427070470844110A417002706B
:100A3000110C8170110EC1707047B0B504460D00E5
:100A40000EBF00202878FF28174601D12070B0BDC6
:100A5000284600F0C3F9874288BF07463A46691C1A
:100A6000601C00F0D3FE2770B0BDF8B50D00044641
:100A7000164603D1002060702070F1BD2878FF2851
:100A800002BF6878FF2820700DD0284600F0ABF92F
:100A90000746BE42B8BF37463A46A91CA01C00F024
:100AA000B5FE277038126070F1BDF0B5541E002BF2
:100AB00037D0052A48DA0025002600230CE0571E0F
:100AC000FF1AFF000CFA07FC4CEA050511F80EC0EE
:100AD0000CFA07F73E435B1CDFB2974209D2DBB248
:100AE000A4EB030E00280CBF4FF0000C10F80EC052
:100AF000E5E7042A0FDAD0000121D200401E914020
:100B0000494245FA00F2D20748BF0D4346FA00F2C7
:100B1000D00748BF0E43AE420FDBB54214DA10E0F7
:100B20005B1CDDB295420FD2DBB2E51A00280CBF88
:100B30000026465D4D5DB54201DA0120F0BDAE42B2
:100B4000EEDA4FF0FF30F0BD0020F0BD0021234A67
:100B500001E0891CC9B2535C8342FAD35018407833
:100B60007047000098D70320D4D6032070FF0320DD
:100B70009EFB0320C0D7032056FC0320E0D60320B1
:100B8000F49F03000EFF0320409F0300589F0300C3
:100B9000BCD7032086D30320609F0300689F030017
:100BA000889F0300949F0300FCD50320D09F03007F
:100BB000B49F0300D89F030034A003009CD70320F8
:100BC0008AD303206CFF03208BD303206DFF032007
:100BD0006EFF03206FFF032089D3032054A003007E
:100BE000283808288041C00F704710B500F009F878
:100BF000FF2801D1A32010BD002104F830100020EF
:100C000010BD0446084600F079BC38B500F00BF87A
:100C1000FF2801D1A32032BD294604EBC000BDE866
:100C2000344000F0FEBF04460846154600F066BC9E
:100C300040B11C280CD01D280DD01E2818BF1F281D
:100C400006D00AE0A1F10B00102806D20020704760
:100C50001B29FBDB01E00929F8DB8A20704710F033
:100C6000E00011D0802806D0A02806D0C02806D0E9
:100C7000E02806D007E01C2070471D2070471E208A
:100C800070471F207047FF20704700F01F0070471B
:100C900080B54C490020087006F0E2FB4A49088004
:100CA00052214A4804F008FF4949002008800021E9
:100CB0004848002200230EC001BD10B544490A88EF
:100CC000522A07DA414CA054501C088080B22044BC
:100CD000401E10BD002010BD38B500F023F80546B9
:100CE000200AFFF7EAFF002D18BF002801D0284690
:100CF00032BD002032BDF8B500F014F800F019F84C
:100D000000F013F80746200EFFF7D7FF002D18BF9D
:100D1000002E05D0002F18BF002801D02846F2BDB4
:100D20000020F2BD0446C0B2C7E706462002000E0E
:100D3000C3E705462004000EBFE7F8B5244D2E8812
:100D40000C46A11952290BDA204F01462246B81948
:100D500000F05CFDA019288080B2001B3818F2BD9D
:100D60000020F2BD30B50024CD18AA4209DA0020D7
:100D700030BD220251FA83F404445B1E14F8014C86
:100D80001419DAB2002AF4D1204630BD0423E9E771
:100D90000323E7E780B50223FFF7E4FF80B202BD3B
:100DA000F8B591420C4615460B4E07D20719384646
:100DB00000F014F82018401C854201DA3046F2BDDC
:100DC0003846F2BD70FF03209EFB0320E0D60320CF
:100DD00056FC0320D4D603200CFF03200078FF2804
:100DE00008BF0020704780B502220021FFF7D2FF24
:100DF0004FF6FF71884208BF002002BDDFF8CC1912
:100E00000A68DFF8CC1988B003A80260D1E9002392
:100E100006A8DFF8C019C0E9002304A8D1E900231F
:100E2000C0E90023DFF8B0190A68DFF8B01902A89A
:100E3000026001A80A680260002100910320DFF827
:100E4000A01908700020DFF89C1903ABDFF898297F
:100E50001B5C02EB0012137006AB33F810305380AA
:100E600004AB33F81030938002AB1B5C937101AB81
:100E70001B5C01EBC30393601DF800301373401C2F
:100E8000012303285373E0DB08B07047DFF85009F3
:100E900000787047DFF8501901EB0010407B00F03C
:100EA00001007047412818BF422803D0432818BFCB
:100EB000442801D10120704700207047412818BF05
:100EC000422801D10120704700207047432818BFF5
:100ED000442801D10120704700207047F8B515461D
:100EE0001E46079B069A044600F062FA60B1042190
:100EF00000F0FEFB070007D0204600F0CDFC324694
:100F000029462046B8478FE0F1BD2DE9F04383B074
:100F10000446160098461EBF0A9F002F5FEA08008D
:100F20000D461ED038780C9B7188000730794CBF75
:100F30004022802200F03CFA98B1082100F0D8FB52
:100F4000814670B1307900F0A7FC0B9801900097B2
:100F50004346324629462046C847BDE8F74300F0DD
:100F6000A4BCBDE8F783F8B500F039F8D0B1210092
:100F70000BD1022100F0BCFB040013D0284600F086
:100F80008BFC31462846A0470BE0102100F0B0FB57
:100F9000070007D0284600F07FFC2246314628464D
:100FA000B84741E0F1BDF8B500F019F808B986205E
:100FB000F2BD00278CB9202100F09AFB04000CD070
:100FC000284600F069FC0998089B079A0090314672
:100FD0002846A047074600F068FC3846F2BD164692
:100FE000069C1A4605462346E2E1F8B50446A56884
:100FF000207800F051FC002612E02868F6B2142197
:1010000011FB06F147182078398803F00AFF012107
:10101000384600F06DFB01001CBF20788847761C25
:101020002979F0B28842E8D3BDE8F14000F03DBC38
:1010300070B50024DFF8B057DFF8A46708E0FFF7C9
:1010400029FF20B1E4B205EB0410FFF7CEFF641CCA
:101050003178E0B28842F2D370BD2DE9F0471746EF
:10106000089C97F80290824620000E4698460CBFD6
:10107000FD7825464846FFF721FF30B16A1ED2B2FF
:1010800031465046FFF7D9FC1FE04846FFF71EFFE8
:1010900030B1AA1E92B231465046FFF7E6FC14E08A
:1010A000B8F1000F06D1200004D0F878844238BF90
:1010B00089200BD3F9781EB9504606F063FC04E092
:1010C0000A463146504600F0A1FB0020BDE8F087FB
:1010D00010B5002301E0001D5B1C9CB28C4204D2C1
:1010E00004889442F7D1408810BD002010BDDFF87D
:1010F000FC16401A0C2190FBF1F082B20021DFF8BF
:10110000F006E5E70288B2F57C4FA8BF00F002B810
:101110000846ECE7DFF8DC16401A142190FBF1F0EA
:1011200082B20021DFF8D006D2E710B50C46018864
:10113000638899420DD1027B23791A4209D0B1F517
:101140007C4F04DBFFF7E6FF2189884201D10120B3
:1011500010BD002010BD10B514460A88E3889A42DD
:101160000AD10288B2F57C4F04DAFFF7CBFF218960
:10117000884201D1012010BD002010BD2DE9FA4F99
:1011800083B0044693460025002603E0C088451935
:10119000ADB2761CDFF848160978F0B2884280F0CC
:1011A000B880F6B23101DFF84006DFF83C2608448B
:1011B000515C227880689142E8D100903046FFF778
:1011C00069FE0028E5D04FF0000A05E0B8F80A00F3
:1011D0004519ADB20AF1010A009909795FFA8AF05E
:1011E0008842D6D200985FFA8AFA0068142111FB6F
:1011F0000AF100EB010821464046FFF796FF002860
:10120000E4D04FF0000908E038793021084202D1DB
:10121000F8782D18ADB209F10109B8F808101FFAD5
:1012200089F08842D6D2D8F804001FFA89F90C2137
:1012300001FB09F14718224639464046FFF78BFF6C
:101240000028E1D0039800B107603879800610D5F6
:10125000DFF89805002106E00279920602D5C278EF
:10126000891889B20C30B842F6D3DFF890054618D9
:1012700002E0DFF88C0546190E9D28001DD0394686
:101280004046FFF73FFF02463B886188207803F025
:10129000C2FDDA4620B33879C00630D5002D394674
:1012A00040461FD0FFF72EFF0346CDF800B06188FF
:1012B00020783A4603F0C8FD2CE0BBF1000F08BFD0
:1012C000002027D039464046FFF71CFF02463B88E6
:1012D0006188207803F09DFDB24600285E46DAD191
:1012E0007E2017E0FFF70EFFF9780191CDF800B0EE
:1012F0000346618820783A4603F0A4FD0AE0BDF871
:10130000100000902B463A4651463046FFF7A5FEA6
:1013100000E0862005B0BDE8F08F2DE9F8450446D1
:10132000884616469A46002503E0397B090616D4FE
:101330006D1C2179E8B288421ED22068EDB21421DA
:1013400011FB05F1471838884045F1D1310006D02E
:10135000802EEAD0402EEBD1397B4906E8D5B0F596
:101360007C4F07DB3846FFF7D5FE504518BF5FEAD4
:101370000A00DDD1384600E00020BDE8F28580B5E6
:10138000134607E080B51346402204E080B51346BB
:10139000802200E0002200F00BF800B1012002BD25
:1013A00080B500234022F6E780B500238022F2E7D3
:1013B00070B50C4615461E4600F0A0F8FF2801D176
:1013C000002070BD2146DFF8204404EB00103346B6
:1013D00080682A46BDE870409FE770B50C46154608
:1013E0001E4600F08DF8032800DAEBE7002070BD00
:1013F0001346402201E00022FAE72DE9F84F80462B
:10140000894692469B46FFF7D3FF002608B9FF2086
:101410001AE00027DFF8D043DFF8C45300E07F1C58
:101420002978F8B288420ED2FFB23801205C4045DC
:1014300009D05B4652464946FFF7CFFF0028EED061
:10144000761CF6B2EBE73046BDE8F28F30B50022ED
:10145000DFF8943300E0521CDFF884532D78D4B2C7
:10146000AC420CD2D2B214011D5D8542F3D10D0005
:1014700003D01C44647BE407EDD5104630BDFF204B
:1014800030BD80B50021FFF7E1FFFF2801D100202A
:1014900002BDBDE80240FDE470B50E4604460021E1
:1014A000FFF7D4FFFF2801D1002070BDDFF838130B
:1014B00001EB00153200687B00F0010114BF40F021
:1014C00001000020B142687316D086B12846FFF7AC
:1014D0008CFD11E00068F6B2142111FB06F10844FE
:1014E000761C017BCA090188204600F0EDFBA86844
:1014F0000279F1B29142EDD3012070BD0121A5E73F
:101500000021A3E7DFF8E0120001085C704738B55E
:101510000C46FFF7F3FF01460020FF291FBFDFF84D
:10152000C82202EB01118968002916D0002203E0CD
:101530001B0648BF2846521C0D79D3B2AB420BD2D2
:101540000B68D2B2142515FB02F52B44451C1B7BFE
:10155000002CEDD05B06ECE7C0B232BDF8B50C460E
:101560001546FFF7CBFF01460022FF291DD00023BF
:1015700001E0521C5B1C9C4800EB0110DEB280684D
:101580000779BE4211D20068DBB2142616FB03F6BF
:1015900030442F00067B02D0760602D4EAE73606F6
:1015A000E8D5D6B2A642E4D1F2BD0020F2BD0021BA
:1015B00009E010B50446012100F005F82046BDE819
:1015C000104004F05CBA2DE9F34F87B004F089F9BC
:1015D000069000248248DFF81082007805909DF87C
:1015E0001C00019000E0641C0599E4B28C427BDA97
:1015F0000199FF2907D09DF81C00FFF77FFF0446E3
:10160000FF2C06D170E008EB04100699007B88429D
:10161000E9D14FF0000A4FEA041901E00AF1010A8A
:1016200008EB09005FFA8AF180680279914257D28B
:1016300000685FFA8AFA142111FB0AF1451828891B
:10164000B0F5967FC8BF06F0D4F9002613E001205C
:10165000009000235A46002102A8FFF78FFD9DF855
:10166000200038B1BDF80A2018F809103B4658464A
:1016700000F03DF8761C2989B0B28842CED2686865
:10168000B6B20C21714347183879C006F2D418F865
:1016900009008DF8080039462888ADF80A00387925
:1016A00040064CBF802040208DF80C003888ADF8F3
:1016B0000E002846FFF726FDADF810003979F878BE
:1016C000490706D5D7F808B00328C0DBDBF800B01F
:1016D000BDE70328B4BF07F1080BD7F808B0B6E799
:1016E0000198FF283FF47FAF09B0BDE8F08F704745
:1016F00030B5047B012200230C4205D1002030BD0F
:10170000144218BF5B1C5200D5B28D42F8D3006959
:10171000DBB250F8230030BD3A49401A8003020C76
:1017200000213948D4E42DE9FE4F0C46002500285D
:10173000607D4FF0010A07D0010008BF022707D0E3
:10174000012804D1012703E008B9082700E0042795
:10175000DDF83490DDF83CB0A8462A48BDF8041006
:1017600000EB88063088884227D1F078384224D0B0
:10177000B0789DF8381088421FD3F178E07BC90615
:1017800007D5D0B13046FFF7C7FF218A814201D08B
:1017900013E090B9AB4503D0BDF83000854202DBC1
:1017A0004FF0000A0EE00299B07848556D1CB9F868
:1017B0000000401CA9F80000ADB208F10108B8F122
:1017C000320FCADB5046BDE8FE8F0000E4900300F4
:1017D000E8900300F0900300F8900300FC900300F1
:1017E00067FF0320FC930300FCD50320EC9103006A
:1017F000189403000C930300149403005CD6032098
:101800002CD6032020910300E891030081423ABFC7
:101810005318984206F00EB98018990707D0521E47
:1018200024BF13F8011D00F8011DF6D87047810789
:101830001CD1103A07D330B433E93210103A20E902
:101840003210F9D230BC1032121F24BF53F8041DDD
:1018500040F8041DF8D838BF121D521E24BF13F8DB
:10186000011D00F8011DF8D8704700BF083A07D3E2
:1018700033E90210083A40F804CD40F8041DF7D2CD
:101880000832EAE70C490D4808600020704700B1B3
:10189000702070470020704780B500F013F8FF28D3
:1018A00001D1A32002BD002002BD00207047704777
:1018B00000BF03480078704734D7032032F4030098
:1018C000FCD5032080B5FFF719FEFF2818BF0020C4
:1018D00002BD00210170704706F0FAB800F0AFB900
:1018E00062F30F2262F31F4200B500BF1300964659
:1018F0009446103928BFA0E80C50FAD85FEA417C22
:1019000028BF0CC048BF40F8042BC90728BF20F8E7
:10191000022B48BF00F8012B00BD70472DE9F24FA4
:101920000329044602DB180004D00529C0F28E808A
:1019300042F0040201251800227003D0180A6370D7
:10194000A0700325FEF74CFF6055691C0A9889B208
:101950004D1C60544FF00008DDF830A007E032461F
:101960004946601906F066F8751908F101080B98E8
:101970005FFA88F810F80800010069D00027742881
:101980004FF0000BB94637DA4C285AF8049B1CBFBD
:101990005328622814D15AF8046B4C2807D1B6B2E8
:1019A000B3464FF6FF70834538D0022736E0532800
:1019B00034D15FFA86FBBBF1FF0F2FD001272DE05A
:1019C0006C2804D14846FFF70EFA861C26E07328DF
:1019D00004D14846FFF702FA461C1FE0A0F130018F
:1019E0000A2938BFA0F1300618D3A0F14101072918
:1019F0002CD2A0F1370611E00026752808BF012778
:101A00000AD0762808BF022706D0782808BF032707
:101A100002D077281AD104275AF804BBB6B2BDF811
:101A2000000016FA85F1C919884206DA0EE004F8BA
:101A300005B06D1C4FEA1B2B7F1EF9B20029ADB219
:101A4000F5D1002E91D0B9F1000F88D1002000E02F
:101A5000A8B2BDE8F28F10B53F4C20603F4801802E
:101A60003F4802603F48036010BD10B584B00C468B
:101A7000009206A90246029101930023374801888B
:101A800035480068FFF74AFF3549096808804FF478
:101A90008A52344909684C80CA8004B010BD03469C
:101AA0002D4802682E48006801882E48006804F01E
:101AB00043BC0020F3E7E0B500F003F804F086FB38
:101AC0000EBD00910293019223490B6824490968D5
:101AD0000A882449096870470023ECE700B583B001
:101AE00001921D4A126800921D4A126813881D4A0D
:101AF000126804F0F5FB0EBD0022EFE780B50091FF
:101B0000FFF7E2FF04F0C6FB02BDE0B5FFF7D9FF27
:101B100004F0CFFB0EBD0023F7E70021EEE71FB571
:101B20000D4C246803940E4C246824880294069C6F
:101B300001940C4C24686488009404F038FC04B0D0
:101B400010BD084800687047064A1368187110688D
:101B50004171704700000000C8D6032056F90320E9
:101B6000CCD60320D0D6032080B50020FFF78FFE0F
:101B70004A490020087006F011F9BDE80140FFF75E
:101B800094BE70B5044616460D463046FFF784FEF7
:101B9000002020703046A847BDE87040FFF785BEA2
:101BA00001223F493F48ECE701223F493F48E8E72F
:101BB00002223D493E48E4E7F2223B493D48E0E746
:101BC00080B5012006F088F83B4806F019F83B493B
:101BD000087001BD80B506F055F9012805D03748D9
:101BE0000078BDE8024005F0F6BF01BD30B5002425
:101BF00000E0641C324D2D88E3B2AB420FD2E4B258
:101C00000C25304B15FB04F52B441D78854201BF94
:101C10005D888D421D799542EBD1184630BD00207C
:101C200030BD80B519B905F053FF002002BDB1F1F8
:101C3000004F02D205F057FFF7E7022002BDB1F5D1
:101C4000000F3CBF0902FFF7ECBF0220704770B5E0
:101C500004461D46FFF7CAFF06000ED02046FFF7D8
:101C600010FC50B1B0682946FFF7DBFF28B9049893
:101C700070710598B071002070BD022070BD1CB558
:101C800000931346049C01940022FFF7E0FF16BD69
:101C900080B500230093FFF7F2FF02BD8CD503202F
:101CA0009F70020084D50320E971020094D50320BF
:101CB0009CD50320A4D50320C4C7032065FF0320BF
:101CC00056D3032060C7032080B5FFF78FFF20B1F4
:101CD000806800210170002002BD022002BD0022A8
:101CE000F2E7704730E03C480078022801DB012031
:101CF00070470020704738B5374D04462878A04219
:101D000003D0214603F0B9F82C7031BD10B5334C27
:101D1000207860B900F018F806F0D0F801212170A1
:101D200028B10188B1F5817F24BF007D2070207823
:101D300010BD2949097818B1022904DA022001E00E
:101D4000022900DBD7E7704738B5FFF7CCFF40BB6F
:101D500006F0A0F802462249224C012003F00AF9BD
:101D60000120FFF7E6FF2078FF281AD106F0A6F839
:101D7000B0B140880006400E00F001052570FF223A
:101D800018211948FFF7ACFD012D0AD1FFF7BEFF5E
:101D9000052806DBBDE83440CC21144806F0E2B843
:101DA000207031BD80B5FFF7CFFFBDE8014006F0E0
:101DB00085B870B504460D461646FFF7C5FF0420EA
:101DC000FFF799FF32462946204606F0A8F8044658
:101DD00000F00FF8204670BDA4FF0320A5FF0320EC
:101DE000B4C9030092D30320ECF30320A8C9030075
:101DF000834602207FE780B5FFF7A6FFBDE80140DC
:101E000006F09CB880B5A149022003F0B3F8FF208A
:101E1000FFF7CFFBFF2003F000F8FF2003F000F8EE
:101E200005F062FA00F06FF803F03FF898490020DF
:101E3000088001BD00B585B000F092F8009800F070
:101E4000010005B000BD10B588B001A9684605F0D5
:101E5000FBFC904C9DF80F00A0700822BDF80C0010
:101E6000208001A9201DFFF7D1FC9DF814006073AC
:101E70008948017808000CBF0022884A204606F0F5
:101E8000D0FC83490020088008B010BD80B56846AA
:101E900005F0E4FC932809D18148006800788DF8AA
:101EA0000000012804BF02208DF800009DF800000A
:101EB00002BD70B590B004460D4616462C2104A80C
:101EC00003F0FAFD8DF81240ADF8106005A802F09D
:101ED000C7FF00F045F80098ADF83600FFF7D6FFD1
:101EE0008DF8380000F03FF8294604A806F0DBFD25
:101EF000010004D166490A8842F480720A8010B059
:101F000070BD07F0C6BA00B585B0012007F0C4FA6D
:101F1000644807F0D7FA644807F0D7FAFFF78AFF5A
:101F2000E0B16249022003F025F85D4800680078BE
:101F3000012808BF022006F021FF022007F0B0FAB6
:101F400000F00EF8009840F080000090684607F01E
:101F500096FA00F008F8032002F012FF05B000BD69
:101F6000684607F081BA70B590B005A8504928229C
:101F700005F070FD05F078FA08B100201BE001A81B
:101F800002F0DDFE04004B4D4B4E03D00094324670
:101F90004A4B0BE005A802F087FF05A901A806F04F
:101FA000B4FE040006D000943246454B2946022078
:101FB00002F0E0FF204610B070BD10B53448018833
:101FC00041F40071018002F03FFE01280CBF0124A2
:101FD000002407F0D5FA28B102463A49022002F05F
:101FE000C9FF00E024B107F00BFABDE8104009E793
:101FF00010BD30B5264D04462888810585B004D52E
:10200000912C41D1FFF7FEFE3EE08F21084226D001
:10201000902C02D1FFF717FF36E0912C34D00290BC
:1020200001942948294B244A29490090022002F0B2
:10203000A1FF2878000627D405F016FA03280AD154
:1020400024480178042906DA491C01700120002186
:1020500001F0E9FC18E0022007F0B2FE14E0FFF7FF
:102060007FFF902C10D10098C0070DD50098400834
:1020700040000090002001900290ADF80C006846EE
:1020800007F0FDF908F051F905B030BD34850300C3
:1020900032F903205CD40320FBFE03206CD503201F
:1020A00034D70320008810020070EF050485030078
:1020B00050850300788503008C8503009485030018
:1020C000AC850300C48503002C860300148603003E
:1020D000F48503005EFF032080B507F0DAF9BDE860
:1020E000024000F0FE0007F0D7B980B507F0D1F943
:1020F000BDE8024040F0010007F0CEB91CB5DFF8A2
:102100006C4C0A21204603F0D7FC6021DFF8600CFC
:1021100003F0D2FCA020608001AB05208DF8040004
:102120001022202000902121F22008F040F913BD58
:1021300000B587B0DFF8341C002008708DF8180057
:1021400000234FF0FF30049004AA00F0AEF9002104
:1021500008F08CFF07B000BD10B5DFF8104C207AF6
:10216000C00788B012D54FF0FF30049000208DF8E2
:10217000180009F0E3FC0020207203900290019007
:102180000090002304AA002108F070FFDFF8FC1B78
:102190000020087008B010BD80B5FFF7C9FFDFF858
:1021A000F01B0020087001BD2DE9F04700F0010987
:1021B000C0F342070C460109400900F0010A00F093
:1021C0006DF9154601F0010827D1DFF8A06B3078D2
:1021D00020B109F05FFDF18888421ED1B9F1000FEE
:1021E00019D009F057FDF08001203070A0207080D8
:1021F0007770F90786F805A046BF4FF47A716143FE
:10220000DFF8901BDFF8880B05F06DFCB8F1000FCC
:1022100003D0357101E0FFF78BFF0120BDE8F087A7
:10222000002070472DE9FA4F8FB00646914600F026
:1022300093F8700A00F003008DF80400C6F3411013
:102240008DF81800F00ADFF850BBDDF884A01A9C66
:1022500000F00708DFF8440B002730400828DBF8BF
:102260000000007908BFBA46042808BF0127B9F169
:10227000000F08BF0DF1280904B90AAC1F9D05B96C
:102280000AAD9DF840000F9A00904B4606F00701FA
:1022900007A809F0BBFD00285AD0DFF8041B012075
:1022A00002F06EFEDBF8000000684079F2284FD1A2
:1022B0009DF8040001284BD09DF82400010018D09F
:1022C000022845D10022082107A802F029FD002894
:1022D0003ED106F0180018283AD0A8F105000228CF
:1022E00036D39DF8180068B9F0060BD487BB85205B
:1022F0002CE0079860B310F1070FEAD310F1010F3B
:1023000026D1E6E71E98CDF814A004900395029418
:1023100007A920981B9B9DF8182001901C980090FD
:1023200030460AF0EDF838B1DFF8401A49788907ED
:1023300002D5FFF7FDFE0BE0310709D540B909F0E2
:102340000EFEFF2808BF002F02D18920FEF7D4FA25
:10235000012011B0BDE8F08F0AA8142103F0ACBB36
:102360002DE9F0438FB00646894690461C46FFF79C
:10237000F3FF169901B90AA900F090F84CD1189D05
:102380001798199FF02D48D0F32D5ED10020002C16
:102390008DF8240007903BD10AF034FB814539D1F8
:1023A000DFF8E859DFF8C449287810B1207A8007AF
:1023B00067D505F05BF80B3840F010008DF8100081
:1023C000F32300200390029007AA04A801900021A3
:1023D0000120009008F04AFE0120207205F046F826
:1023E00008F10B0188420AD0012000FA01F1002215
:1023F000032009F033FB207A00F0FD0002E0207A90
:1024000040F00200207241F28831284605F06BFB53
:10241000012037E0FFF7A0FE33E016F007028DF849
:10242000182008BF049401D000F02FF80AF0EAFA4F
:10243000814504D1002003900290F02318E000F0C1
:1024400034F8002304AA002119E0F72D03DAA5F1DE
:10245000B002102A15D216F003028DF8182008BF1A
:10246000049401D000F011F80020039002902B4654
:10247000781C01903878009004AA0021012008F00F
:10248000F5FD00200FB0BDE8F08302228DF8182082
:102490008DF81900082204A805F0CCBADFF8F80876
:1024A000006800684079F22870470020039002908D
:1024B000019000907047002070472DE9F84F80464A
:1024C00008F104068946326892B200214846FEF7B8
:1024D000A6FA307B010009F1020404D1726800F011
:1024E000A4F8241D08E0022806D1082208F10801FA
:1024F0002046FFF78BF90834307B022804BF707B3D
:1025000004F8010B3068800403D5328A00F099F892
:10251000A41C3068410410D5B07C04F8010B0021E4
:10252000726900F083F8251D102208F11C0128466D
:10253000FFF76CF905F1100405E0800603D5726918
:1025400000F073F8241D307840064FF00C0A19D5BE
:102550000025274604F8015B00F06BF803280ED134
:1025600008220BF102012046FFF750F90834BBF8AE
:102570000A2000F066F83878401CA41C38706D1CE6
:10258000022DE9DB3068C00517D50025274604F881
:10259000015B00F04EF802280CD1BBF8022000F0DD
:1025A00050F8A41CBBF8042000F04BF83878401C0D
:1025B000A41C38706D1C022DEBDB08F1440001787F
:1025C00004F8011B317801F0180118291CBF40786C
:1025D00004F8010B3068010403D5020C00F031F857
:1025E000A41C3068C0031BD50026254604F8016BE7
:1025F0001AFB06F0404400F12C07387803280CD170
:102600000822B91C2046FFF701F908347A8900F046
:1026100018F828780A30A41C2870761C022EE7DBF4
:10262000A4EB090080B2BDE8F28F00212046FEF73E
:10263000FBB91AFB05F0404400F12C0B9BF800009D
:10264000704700212046FEF7EAB92DE9FA4FB3B0F2
:1026500000F007018DF80410C0F3C10814461CA84F
:10266000FFF77BFE0025002704B91CACDFF8280724
:1026700000680179002947D100684079F2285DD1CE
:1026800000F09AF8002859D19DF88400FF2818BF5F
:102690006D1C7F1CFFB2052FF2DB9DF8F800DFF800
:1026A000BC68DFF8BC98DFF8BCA80690B8F1000F52
:1026B000EDB227D19DF8D000339A9DF80410009018
:1026C000234607A809F0A2FB002871D007A809F04B
:1026D00022FC0746FF2F1AD000F072F80195012066
:1026E00003905346FF2000F06FF800F065F828BB18
:1026F000308809EB000121A8FFF7DFFE3188401880
:10270000308053E0B8F1010F52D1A84207D300F056
:1027100057F803900195069802908B2041E000F055
:102720004FF80195FF2003905346069800F04CF8AF
:1027300000250024002700F03FF808B1002038E011
:102740009DF88400FF281AD06D1C9DF8F800E9B2AE
:10275000884214D207A921A8FFF7AFFEB6F800B04F
:10276000804608EB0B0052280DD2424607A909EB20
:102770000B00FFF74BF808EB0B003080641C7F1C4C
:10278000FFB2052FD7DB89F80640FEF7AEF87428B4
:102790000ED100F015F80390EDB206980290019565
:1027A0000020009053460B2200F012F8FEF79DF82F
:1027B000012035B0BDE8F08F21A9384609F055BB9E
:1027C000002005900490704702900B22002000909A
:1027D00021210120FFF749B92DE9F04F04460020DF
:1027E000F22C08BF2129A7B04FF000094CD1112AC3
:1027F00002BF802B3099002946D1319C062C43DB47
:102800001120FEF769FADFF85467DFF854A7308823
:10281000071DBFB2B84600256946284609F025FBCA
:1028200008B1002030E09DF80000FF2813D012A965
:102830006846FFF742FE834607EB0B00844202DA4C
:102840004FF089090BE05A4612A90AEB0700FEF780
:10285000DDFF5F44BFB26D1CEDB2052DDCDB5FEA2E
:102860000900A7EB080409D10020FEF726FA43204F
:10287000FEF723FAA0B2FEF72FFA01E0FEF71DFAE9
:10288000308820183080012027B0BDE8F08F2DE976
:10289000F043DFF8D874387889B0894615461E466B
:1028A00078B196F80880B8F1000F04BF30680028AE
:1028B00007D0159CE02C18BFE22C02D01398C0075B
:1028C00003D5012009B0BDE8F0830AF09BF801466A
:1028D0000691CDF81C900394009519991098169ABA
:1028E000059148EA00141899049108920190324623
:1028F00014991198029144EA8010737A316840F477
:10290000006009F025FAFFF71CF90446F220207157
:10291000607105200AF09DF9787920B1F9880020CE
:10292000FFF7EAF80AE0E08840F00200E0800C3DA2
:10293000A57230460BF01EFF00F08AF800F032F965
:10294000BFE7400900F00600C0F103004007000E99
:1029500070472DE9F04F1F468BB08946397A904673
:102960000A0004BF3A68002A71D00A0006D13A680A
:1029700012F1070F02D312F1010F68D1022908D119
:1029800000217A5C1AB9491CC9B20829F9DB082967
:102990005DD0169900295AD1179C3A7AE10748BFB1
:1029A00042F008027E28159918BF7F2806D142F40C
:1029B000007001B1042140EA811001E042EA811077
:1029C000149DDFF8A8A31C9EDDF874B0290141F422
:1029D00000610843ADF824009AF80500A8B10AF098
:1029E00011F800F03BF800F049F8E0074CBF202058
:1029F00005200AF02EF9FFF7A4F800F0BAF800203D
:102A0000BAF80610FFF778F81FE009F0FBFF00F0B6
:102A100025F8A8F10C0500F031F8FFF792F800F066
:102A2000A8F88572C18841F00201C180E00705D590
:102A30004846FFF786FF203080B200E005200AF00C
:102A400008F900F0A0F900F003F800F0ABF88CE012
:102A50000146EAB24FF6FD70FFF75DB80690CDF87B
:102A60001C90CDF814B004960195CDF800803A463C
:102A70009DF864001A990390089170471898029085
:102A80007B7A3968BDF8240009F062B910B500E01E
:102A900010B58AB0159C0994149C0894139C079453
:102AA000129C0694119C0594109C04940F9C039412
:102AB0000E9C02940D9C01940C9C0094FFF749FF1E
:102AC0000AB010BD2DE9F84FA84E8AB0884631787B
:102AD00000291EBF317A01F003010129924644D03A
:102AE00008217E281598149C1A9F1C9DDDF874B04F
:102AF00008BF4FF40271800140EA041040F4006006
:102B000040EA0109707978B109F07CFF00F035F8EE
:102B1000FFF717F800F02DF820200AF09AF8F18856
:102B20000020FEF7E9FF1EE009F06CFF00F025F839
:102B3000FFF707F800F01DF8AAF10C04C1888472B1
:102B400041F00201C1804046FFF7FBFE203080B219
:102B50000AF07FF80A980BF00DFE0146E2B24FF63C
:102B6000FD70FEF7D8FF00F01DF801200BB0BDE8A6
:102B7000F08FF22101714171704708970690CDF8EE
:102B80001C80CDF814B004950194CDF800A000236A
:102B90009DF8640003900022189802900021484696
:102BA00009F0D6B800200AF054B82DE9F04F99B0DA
:102BB000884629980146FF2993461F4600F0D28097
:102BC000DFF8A42312684823594311444A6842F4A9
:102BD00000724A6042F480624A6006A909F045F931
:102BE000002840F0BF80397A0C2306AA43431A44D8
:102BF00092F82C20130014BF032A41F0080103D0DF
:102C0000022A08BF41F02001401C0228ECDB9DF89D
:102C10001C00279D259C0006229844BF41F010010E
:102C200089B241EA8012239942EA0121E02D41F460
:102C3000A04118BFE12D1FFA81F902D14B49097853
:102C400019B1E10748BF49F40069DDF898A000B95F
:102C5000DA4609F0D7FE0490CDF814803A462B9856
:102C600003902A9802900195CDF800A07B7A3968EC
:102C7000484609F031F800254FF6FC790C2106A8EA
:102C8000694300EB010A0AF12C063078010018BFF5
:102C9000032818D1FEF755FFFFF76BFFE0074CBF85
:102CA0002020052009F0D5FF7089484506DB0AF190
:102CB0002E0009F019FE4845B8BF708171890020C7
:102CC000FEF71AFF22E0022822D1FEF73AFFFFF7B3
:102CD00050FFABF10901817200F04CF805D5404678
:102CE000FFF72FFE203080B200E0052009F0B1FF91
:102CF000B1884FF6FF70814202D100F044F80146DE
:102D0000ABF109027088D2B2FEF7E6FEFFF74AFF88
:102D10006D1C022DB2DB9DF81C00000622D5FEF7CB
:102D200010FFFFF726FF80F80AB000F023F805D562
:102D30004046FFF706FE203080B200E0052009F093
:102D400088FF0798800448BFBDF82C4002D400F0EB
:102D50001AF8044600F017F85A462146FEF7BCFE62
:102D6000FFF720FF012019B0BDE8F08FF4EF03203A
:102D700000F00320C18841F00201C1809DF85C1081
:102D8000C172E007704738460BF0F4BC68F00320CE
:102D900060F0032000710200BCD70320080002008D
:102DA000A8B10300012070472DE9F74F94B0984671
:102DB0009DF8940000906D48007AC00702D50098F5
:102DC000E32816D1209C200002BF68480078002824
:102DD00010D1404609F09FF8FF280BD001A909F057
:102DE00044F8002805D1029840043DD49DF81A000B
:102DF00000287AD19DF850000A909DF850000028D4
:102E00001CBF0A987C2805D07F286ED157480078CF
:102E100000286AD055480078229DDDF89090DDF8B2
:102E200098A0279E289FDDF8A4B0002856D028003F
:102E300003D000F070F8FFF72AFD0A987F2808BF3A
:102E4000032C2FD09DF89400E02826D01BD3E22835
:102E50000BD002D3E3280FD015E0E12000F048F8B2
:102E600000F06DF8FFF712FE3FE000F041F800F0CF
:102E700066F8FFF70DFE38E000F03AF800F05FF872
:102E8000FFF720FE31E00A997C2909D1A0F1E40185
:102E90000C2924BFB038102823D200F03CF81AE0E7
:102EA0007F291ED19DF894009DF858209DF854105C
:102EB0000590CDF824B008970796CDF818A0CDF866
:102EC00010900295009443469DF88C0003909DF865
:102ED000840001907E20FFF73CFD06E00098E22888
:102EE00003D000F018F8FFF760FE17B0BDE8F08FD0
:102EF0000590CDF824B008970796CDF818A0CDF826
:102F000010900295009443469DF88C009DF858203F
:102F10009DF8541070479DF894009DF858209DF836
:102F200054100590CDF824B008970796CDF818A056
:102F3000CDF810900295009443469DF88C000390C4
:102F40009DF8840001909DF85000704728B907480B
:102F5000007AC00748BFFFF7FFB8704756FC032050
:102F6000E0D60320B4B10300BCCF0320F4EF03206C
:102F7000912800D0704780B500F069F918B9BDE814
:102F800001400BF01BBD01BD00B5A1B040887D2202
:102F9000694604F081FB01001CBF694602F08EFE09
:102FA00021B000BD80B50B460146002218460CF04A
:102FB00071F8010001D1182002BDBDE808400122CE
:102FC00001210CF047BA80B502F07AFDBDE802405D
:102FD000012010B5040014BF084800200CF038FB95
:102FE00050B1002CBDE8104014BF054A054A034605
:102FF0000549022001F0BEBF10BD000070AE030005
:1030000058AE030064AE03002CAE030038B50CF0DC
:10301000B7FB0CF0D5FB78B101F036FF60B1094C7D
:10302000207804F011FE0546207804F04EFE3DB1F4
:10303000BDE8314001F027BFBDE831400CF008BCCD
:1030400031BD000065FF03207047704780B500F078
:1030500094F8BDE8014094E0FEB5044601F04EFD51
:103060000646204601F05AFD00229DF80010064257
:1030700003D186F00103184301D10198027820465C
:103080004FF6FF7506B321281EDA4223022A414E6D
:1030900009DA5A43324432F81030AB4214D05B1C88
:1030A00022F8103010E00FD1002206EB400703FB9E
:1030B00002FC37F80CE0AE451CBF0EF1010E27F8FC
:1030C0000CE0521C022AF2DB334F344B37F810204D
:1030D00033F810C09445B641F643F60FAC451CBF1B
:1030E0000CF1010C23F810C0092818BF0B280AD1D5
:1030F000B3F814C0BF8A01EB0C0EBE45AEBF9F8271
:10310000614499820DE01D280BD133F8107001EB5A
:10311000070C9445BDBF6918C91923F8101023F88E
:10312000102033F81000904203D316B9204601F066
:10313000A3FE00261A48815DA14204D0761CF6B297
:10314000112EF8DBF7BD112E16DA02F0CCFB044687
:1031500014480078844203DBDD21134804F002FFA9
:103160002221124811FB04F1084430F81610A9423C
:103170001CBF491C20F81610F7BD5221074802F069
:103180009BBCFF2252210448FEF7AABB024A22F848
:1031900010107047F0F4032078F4032024F4032087
:1031A000B4D20300A0D30320A4D20300CCF40320A4
:1031B000DFF8941AC873704770B5DFF8905ADFF8DB
:1031C000906A297830683824614301448A78112A4A
:1031D00004D0B421DFF87C0A04F0C4FE28783168FA
:1031E00014FB00F408194122827070BD10B5022052
:1031F00002F07CFB02F081FBDFF8540ADFF84C3A66
:1032000001681C78DFF8402A3820444308194178C7
:10321000042903D1107C401D107405E04FF47A712D
:1032200002F1180004F05FFCBDE8104002F066BB3C
:1032300080B5DFF8240A0BF0A0FCDFF8200A0BF0C1
:103240009CFC0CF009FBBDE801400CF026BBDFF84C
:10325000000ADFF8F8290168137838204343C818BA
:10326000807833281CBF4328532801D101207047A0
:10327000002070472DE9FF4E0DF04FF809F0C3FC18
:10328000002867D0DFF8C04900202076DFF8D00999
:1032900001790C3001F0E2F9207D18B10CF0F6FA5A
:1032A0000020207500212173002700F055F80DF053
:1032B0002DFD0DF0A5F8DFF8AC09DFF89069DFF817
:1032C000A8B9482500F1E40900F1E20A9BF80010D2
:1032D000F8B288423ED202F010FB307868434FF6D5
:1032E000FF723AF80010914218BF012107D1002265
:1032F0000821484401F014FD411E8941C90F94F88A
:10330000202002F001020A4220D0307868430822CF
:103310003AF80010ADF8081009EB00016846FEF716
:1033200075FA0A230A2201F0EDF9DFF82409016891
:1033300096F800C0382010FB0CFC01EB0C0000F1EB
:103340002C0102230B2200200DF004FF02F0D6FA1C
:103350007F1CBBE7BDE8FF8E10B5DFF8F008DFF893
:10336000F02801781368382010FB01F018444078E9
:10337000032818BF04280CD14820DFF8E82841436F
:1033800050184FF6FF72B0F8E210914208BF0320C8
:1033900008D001F0D3FB044601F0D9FB214603F02D
:1033A00096FD022001F0F8FB0DF082FF00F0FCFF1B
:1033B0000DF0D8FC01F03EFA20B1BDE8104000202D
:1033C0000EF01DBA10BDF8B5DFF87C48DFF87C7848
:1033D000DFF87C68E0733825397830686943014448
:1033E0008878032818BF002823D0332818BF432823
:1033F00019D100F01FF83978306815FB01F5421932
:103400005178032918BF042907D1801C0321415595
:10341000E07BBDE8F24002F0DBBAE07B02F0D8FAD4
:10342000BDE8F14098E721208870BDE8F14006F042
:1034300014B9F1BDE37B132253A103200EF041BE6A
:1034400038B501F064FA3820444315190021A970F9
:103450004FF6FE7009F0E2FA4FF6FF7009F0FAFA43
:10346000DFF8E447FFF7E6FFE07BBDE8324002F01B
:10347000AFBA00002DE9F8430546DFF8000CDFF88D
:10348000CC67DFF8CC970EF06FFE80462B461822F3
:103490003DA103200EF015FE002088F8000038271B
:1034A0003178D9F800007943084470244178032921
:1034B00018BF042924D00024290007D1416B91F8BA
:1034C0002400E8B181F824409D2017E0FF2D06D0AC
:1034D0004FF47A7045432946404604F004FBD9F87E
:1034E0000010327801F1340017FB02F7C15991F84E
:1034F000240028B9012281F824209C2002F068FAD7
:1035000000F052FF2046BDE8F283DFF84407DFF801
:103510003C270168137838204343C818416B91F861
:103520002400704710B5DFF8540B0EF01DFEDFF8D5
:103530002017DFF818370A681C7838214C43111916
:103540004A6B92F8241009B9002010BD04F0D8FA93
:103550004FF47A71B0FBF1F0C0B210BD38B504F091
:10356000BEFB0446DFF8141B0EF0FFFD0546FF28E6
:1035700018BF02F0C2F900202070FFF77BFFFF2D7B
:1035800001D001F089BA31BD4242000038B50D4684
:1035900088B00446686907901622297C0691E8895C
:1035A0000590297B0491E87A0390032095F90A108D
:1035B00002912B890BA10193009523460EF081FD0A
:1035C00001200CF0B3F9287B00280CBF4FF6FE70E9
:1035D00009F018FA2B46224609B0BDE830400146F2
:1035E0000120AAE04242387057424242574244000A
:1035F0002DE9F047DFF85496DFF8546699F800C0DB
:10360000884631681D4638248B1C14FB0CFC82460E
:1036100013F80C0000284BD1170049D0042F47DCC9
:103620000EF053FE002843D102F069F900283FD183
:1036300002F067F908B1042F3ADB287B032817D181
:103640004FF6FE71884515D1012F08BF4FF00008D5
:1036500010D0022F2CD109F0D5F94FF6FC71884219
:1036600002DA09F0CFF901E00FF034F8804601E00A
:10367000012F1DD0BAF1000F0CD0287B03280CBFFE
:10368000012100213846012F18BF00200FF0EBFA6E
:10369000010030D12946404600F07BFF01002AD1CD
:1036A00002F029F902F00CF920B102F02AF908B170
:1036B000702020E0306899F80020811C14FB02F48F
:1036C000085D332818BF532803D0DFF87C1500208D
:1036D0008873384600F020FF00214FF6FF7001F09C
:1036E0001FF9DFF8E417087820B102F00AF908B9E9
:1036F00010F019FD0020BDE8F08738B50446DFF86A
:10370000485508222146281DFEF780F8207BDFF867
:103710003C350228C8BF0020287094212878E9731E
:103720000028DFF82C051C7802680CBF012131212C
:10373000382044431019817031BD38B51C46FFF75D
:1037400057FF010032D1207B0328204602D1BDE87B
:1037500032408FE0FFF7D1FFDFF8EC0400218181D8
:1037600001F038FB014640094FF0010305D1DFF8B5
:10377000680C027803FA01F108E001F01F0140F043
:10378000180003FA01F1052241EAC061062008F0A1
:1037900065F901000AD0DFF8B814DFF8B0440B680F
:1037A000257838214D43591900228A7032BDF8B569
:1037B00086B006460C4617461D46082204F10C0149
:1037C0006846FEF723F82189ADF808108DF80A70D5
:1037D000002221788DF80B108DF80C206B463246B4
:1037E0004FF6FE710120FFF703FF01000AD1684682
:1037F000FFF783FF204600F007F8010004BFDFF861
:1038000048140D7507B0F0BD10B50446DFF840044C
:10381000DFF838240168137838204343C81840780B
:10382000032818BF042806D1E079C10744BF94F9E2
:10383000050010F010FD207801F022F801F05DF88D
:10384000034622896189002010F0E2FD040004D0C3
:103850009420FFF7B8FD204610BDDFF8EC4394201C
:10386000E073022002F041F800F094FD0320207480
:10387000002010BD10B504460022082101F050FAC6
:1038800008B1012010BD09F0BDF800224FF6FF710C
:1038900000F0BAFE217C204600F0E0FE6269E1897A
:1038A000207C0DF04BFDDFF8A803DFF8A0230168B2
:1038B000137838204343C8184178012908BF0FF016
:1038C000F9FFFFF749FD002010BD2DE9FC4100F094
:1038D000A2F80446907810B90EF0F7FC08B17020F9
:1038E00091E00CF02CF8DFF860832CB10222214625
:1038F00008F12000FDF78AFF684600F0DBFF08B101
:10390000932080E09DF8003014227FA103200EF068
:10391000D8FB00F0FBFE010075D19DF8000000F01F
:10392000FBFD38683278411C6A43885C012818BF67
:10393000022808D0032818BF042842D1002001F033
:1039400035F800283DD000F0F8FE38683278411C88
:103950006A43885C032814BF042810F057FEFFF761
:10396000FBFC012010F07AFE01004CD13078396860
:1039700068434A1C125C032A18BF042A0ED198F827
:1039800020309C0708D50522DFF8EC16012000F056
:103990005FF8010036D036E0032A01D0042A31D185
:1039A000084400F12C0102230B2201200DF0D2FB70
:1039B00000F02BF891F82C20500723D50CF04EFE88
:1039C00020E000F022F813228A70002088F80D0011
:1039D000012401F0FFF9400903D101F0FBF9844013
:1039E0000BE001F0F7F9450901F0F4F900F01F00D0
:1039F00045F01805844044EAC564052221460820A4
:103A000008F02CF80020BDE8F6813178386815FB05
:103A100001F5411970478D4E8D4F32783968382540
:103A20006A430A44704711E00000000038B50446BC
:103A30001046032818BF04280D4601D0022032BDCD
:103A400000F06AFD29462046BDE83840FF2200BF4D
:103A50002DE9FC41804616467D487C4A13780D4688
:103A6000016838204343C818417801293FD087783E
:103A7000022F07D0032F3AD15FEA080102D1007963
:103A8000810734D4332001F087F80CF046FC15F0A0
:103A9000784F12BF0522DFF8400902782946062038
:103AA00007F0DCFF0446A0B9674F387301200BF024
:103AB0003DFF08F0C3FF78805FEA080014BF0220D2
:103AC00001203870381D00F00DFF00207873BE73A0
:103AD00002E0384601F060F85FEA08003146284607
:103AE00002D010F0DCFD03E010F0D8FD00E07024FF
:103AF0000194009543462C2204A103200EF0E1FA24
:103B00002046BDE8F68100004242000042424442A5
:103B10000000000010B50BF0B3F900F110042046CE
:103B200010F0C3FD4FF6FF5101402046BDE81040A4
:103B300010F0C1BD2DE9FF47064608F063FF434D75
:103B4000DFF80C912A788246D9F800003824411C0D
:103B50006243885C032818BF042806D1F079C107A6
:103B600044BF96F9050010F076FB3078DFF8307C22
:103B700000F086FE7089002100F0D2FE01F0E2F82C
:103B80004FF0480878B1BAF1000F03D04FF6F87142
:103B90008A4508DB0EF09EFD297818FB01F182466C
:103BA0007A5A9042F6D0504608F038FF308908F033
:103BB00051FF06208DF8080000F09FFE8DF80900E7
:103BC000022300200190009002AA287818FB00F040
:103BD0000121385A10F0BBFE064620B91820FFF725
:103BE000F2FB182021E0287818FB00F8304637F85F
:103BF0000810154F11F0E8F8387802281CBF30463D
:103C0000FFF788FF00F06DF8C0B19420F873022030
:103C100001F06BFED9F8000000F0B4FC08D1C82117
:103C200000F02EFA03203874002004B0BDE8F087BD
:103C30004FF4167100F024FA0020F4E79420FFF707
:103C4000C2FB0120F1E70000C0F70320D3FF0320EF
:103C5000A4CF0320E04A000044FF03203EFF0320DE
:103C6000E4F70320E0F90320A0D3032078B587B060
:103C70000C4616461D4630B9204611F060FA03A9DD
:103C800010F07DF903A8019007230C998DF80960C5
:103C900001208DF808308DF80B100090360A8DF851
:103CA0000A60042302AA0121204610F050FE0600FB
:103CB00014D0214611F088F815B93046FFF72AFFD5
:103CC0000D9808B930460AE0204611F065FB18B19E
:103CD000304611F00AFC01E000F003F8002008B0C3
:103CE00070BD00220021304611F0E3BF2DE9F64FF0
:103CF00085B08A461C46104611F02EF90546BDF8DF
:103D0000180003A910F05FFE0027002C14BF4FF02D
:103D1000010BBB460026BBF1000F4FF6FF79B846FA
:103D200007D008B10DF10C086678760806F0010698
:103D300004E0BDF8180011F083F88046DFF8681C35
:103D4000DFF8D82B0978126838204143531C585C9F
:103D5000032818BF042800F0B38010986B1C11448E
:103D60001D5C8DF808A0680800F001008DF80900BE
:103D70002806887858BF45F08005022807D15FEAF9
:103D80000A0002BF496B91F82400002801D10227E4
:103D900030E0404608F0A8FDADF80000BDF818007E
:103DA00011F064F8814608B94FF0010930000CBFEA
:103DB0004FF0050A4FF0010ABBF1000F04D0201D9F
:103DC00010F073FC834601E0BDF800B0BDF81800A8
:103DD00010F0C8FFCDF80490CDF800A02B465A464D
:103DE000414600F001000FF0ABFF00F087FA81467A
:103DF00008BF01279CB19DF8080018B9484600F09B
:103E00007DFA02D1201D10F050FC01210191009794
:103E1000014633464A464046FFF728FF0AE0BDF810
:103E2000180010F09FFF3B464A46414600F0010053
:103E300010F0DFFA9DF8090020B94FF6FF714046F7
:103E400012F088FA002F3BD19DF8090028B14146B5
:103E5000484612F0B4FA12F017FB30001EBF484675
:103E60004FF6FF71884219D011F069F9FF2815D07B
:103E7000DFF8A81ADFF8307B0A6897F800C038210D
:103E800002F1340311FB0CFC4BF6FF7153F80C20CC
:103E9000526832F810300B4022F8103084B108F02C
:103EA000B1FD0EB1002405E09DF80810002914BFF3
:103EB00003240124014643464A46204612F0F8FCFA
:103EC00007B0BDE8F08F0000B9D303202DE9FE4F05
:103ED00081460F46144601A9384610F074FD83460A
:103EE00000200090384611F037F85FEA0901824659
:103EF000DFF8A05B08D0BBF1000F18BF0DF1040B79
:103F000010F056FD064604E0384610F099FF83464F
:103F10002E46384611F020F8025900920DF10100AA
:103F200010F0C3FB80469DF803405FEA090006D00D
:103F300008222946304613F00DF8002823D1DFF877
:103F4000606BDFF8D82931781268382515FB01F14C
:103F50005318D87818B19AF80100830714D55FEA8E
:103F6000090011D0901C415C022908BF002C0BD124
:103F7000404608F053FD0CF0C9FE9923FFF75BFAA9
:103F8000992001F025FD6EE000F0DCFE002818BF4E
:103F9000002CDFF8107B05D09420FFF714FA0020E6
:103FA000387660E000F0CEFE00285CD0584612F073
:103FB00014F8FF2818BF5FEA0901DFF8E44706D1CB
:103FC0003278482042435946A05A12F0F8F912F0CC
:103FD0005BFA3178482041435A46615ADFF83C4940
:103FE000404600F011FBDFF8C00A90F90210090208
:103FF00079843078216815FB00F08A1C125C012A54
:1040000016BF312A11224322891C0A54022001F0D2
:104010006CFCDFF8980A016800F032F810F0F6FA4C
:1040200000203874317815FB01F521684A19D078E1
:1040300020B907F1180003F04BFD12E0B9F1000FB1
:1040400006D09AF80100820702D5FFF713F908E0BD
:10405000481C415D042904D1052100F011F8092014
:104060003874AD21F97300F0E5FB10B100200DF0BC
:10407000C6FBBDE8F78F000000F8FF07C0F603207D
:1040800007F1180003F02FBD2DE9F04F88468DB0E1
:10409000404610F061FF83460922002112F08CFF98
:1040A0000546404610F0CCFE814602AB052205A92C
:1040B000404612F0D9FF02288DF800002BD09DF861
:1040C00008004519EDB20BEB050A05F110029AF84C
:1040D00000108DF801100023D2B24146012010F0EB
:1040E000D9FA002817D09DF80100DFF8B479DFF87D
:1040F0002C48382601280FD0022819D0042800F0B7
:10410000CD80062822D0072800F09380082839D0D7
:104110007C2800F09580E7E0404610F023FE0095F3
:1041200000234246002100F00100FFF7DFFDDBE045
:1041300000F0DDF8012B02BFDFF8681908780028CD
:1041400003D12A464146FFF7C1FECDE0484610F0B4
:10415000A6FF00F0D3F8054608D0404610F002FE56
:104160002A46494600F0010010F02EF900F0BFF891
:10417000022B06D101F0BEFB484610F080FA01F098
:10418000BDFBB1E00AF1010010F08FFAADF80000BC
:104190000AF1030010F089FA05460AF1060010F052
:1041A00084FA00F0ABF88246EBD010F02FFA2068CA
:1041B0003A78811C72438B5C132B08D100F0BDFA56
:1041C000404610F03DFE0146284612F0F8F82068FF
:1041D0003A78811C7243885C022818BF132821D1C9
:1041E000504608F01BFCBDF8000008F033FC00212D
:1041F000002000F033FA4946284600F091FBDFF832
:10420000A808DFF8AC18C0780F28B4BF401C0F20F6
:10421000087000F0C9F8387816FB00F62068811C99
:104220008A5D132A60D1801C2321815507F086FC0A
:104230005AE09DF8001005AA40460BF08DFB53E0B4
:104240009AF80100652802BF0BF10201485D6D2854
:104250004AD140460AF02CFE1335E9B2814243D2DE
:104260000822494603A8FDF7D1FA6A46E9B240465A
:1042700010F026FAC0BBBDF80000A8B3DFF8344840
:104280000120207001F036FBBDF8001003A810F0EB
:10429000EBF901F033FB0020207025E0062200211D
:1042A000584612F089FE584410F0FFF904460FF604
:1042B00040000088ADF80A0000210191009102231E
:1042C0000DF10A020121204610F041FB06000BD03F
:1042D000214610F079FD404610F044FD00223146A1
:1042E00000F001000BF0F5F80DB0BDE8F08F20688C
:1042F0003A78811C16FB02F68B5D70474FF6FF7112
:1043000088427047F8B5022001F0F0FA01F0F5FAA2
:10431000DFF89047DFF88867DFF800760020207626
:10432000382508F070FC40B1327839686A430A4495
:10433000D07810B9FEF79EFF2BE008F064FC10B9AE
:1043400000F000FD68B1207C58B100F023F8207C1B
:10435000411E217401F0CFFA014600200DF0D1FB7F
:1043600017E038683278811C6A438B5C132B0DD0C0
:1043700000F0E8FC50B938683278811C15FB02F572
:10438000485D11281CBF4328412802D1E07BFFF77C
:104390001AF84BE2C82104F1180003F0A4BBDFF8BF
:1043A000041700200874704780B501F0CFFAFF2889
:1043B00007D000F04AF9416B91F8240010B10120B8
:1043C00000E000200FF0AAFFDFF8D80600214180AE
:1043D000001DC0E9001101BDBAD303202DE9F84347
:1043E0000F46DFF8C056DFF8C08601210446697326
:1043F00084B0914640460BF054FA04F07DFE00284C
:104400007CD1012C18BF042C00D084B9CDF80090C9
:104410003B462622AEA103200DF053FE01F06AFABE
:104420004946384603F07BFA01F068FA66E0DFF8A7
:104430007046DFF88466227830683827811C7A431A
:10444000885C23280DD100F079FB044600F07FFB47
:10445000214602F03CFD022000F09EFB0BF0D0FF55
:104460004CE0B9F1000F49D121281CBF0428532882
:1044700002D105F0F2F841E000F064FCE0B10BF08D
:1044800051FA28B9287B00280CBFAB20942030E0DB
:1044900040460BF006FA28B140F2CF610FF24060BF
:1044A00003F060FD28780028404602D1FFF7ACF900
:1044B00024E0FFF73FFB21E030682278811C7A433B
:1044C0008B5C132B1AD100F019F9BDF8000008F02D
:1044D000C1FA00F032F9207817FB00F73068C119F3
:1044E0004978032918BF042906D1801C3321C155FE
:1044F0009620FEF768FF01E0FEF72EFF1020002156
:1045000010F02CFF10B911F01FFC10B100200DF0BD
:10451000F4FA05B0BDE8F083F8B5DFF88C54DFF8A5
:104520009865316807462878382460434A1C135C34
:10453000BB4204D0491C0F54384601F042FA04F043
:10454000C1FC60B13FB9002004F0B8FC01F0D3F920
:104550000146012211E0012004F0B0FC00E01FB18F
:10456000306800F00FF804D101F0C5F901460022CF
:1045700003E001F0C0F9012201460020BDE8F84047
:104580000AF07CBF2A78411C14FB02F40B5D042B5B
:10459000704770B592B006460C4601F0A2F9054688
:1045A000E17A002013F046F808B98A202AE094F94D
:1045B0000A0000F0E5FB08B18B2023E000F073F95E
:1045C000E17A00F8D41F2946A27A427000206A4698
:1045D0000DF09FF94FF6FE70ADF8046086420CBFF7
:1045E0004FF6FF702089ADF802006A462946002088
:1045F0000DF0B5F808B1022004E02089DFF8A4141A
:104600004880002012B070BD38B50C46154608F041
:1046100005FA0EF017F82946204600F081F90BF054
:1046200081F938B1DFF88004C0780F28ACBF0F20C3
:10463000401C06E000F009F8417801290CBF002079
:104640000120DFF86C14087031BDB448DFF8502445
:104650000168137838204343C81870477FB5044673
:104660000E4600F04BF8D04DC4B1DFF850240021C5
:1046700030460CF063FE2978A84A38204143106880
:10468000435C8DF804300844082241788DF8051009
:1046900002A82146FDF7BAF813F077FF2A78DFF871
:1046A000201448204243881810F8D41F8DF80310B6
:1046B00041788DF8021008F0C1F9ADF8000008F05B
:1046C000A1F9ADF8060000F01BF87FBD0000000066
:1046D000424242001FB5044600F010F81CB1002011
:1046E0008DF8050007E008F08DF9ADF8060008F038
:1046F000A5F9ADF8000000F003F81FBD684651E0D1
:1047000010230722694600200CF024BD80B58AB032
:10471000FFF7F4FFBDF80000ADF8180004A99DF8FC
:1047200003008DF81B009DF802008DF81A00BDF8FB
:104730000600FFF72EFF0BB000BD70B586B001205C
:1047400000F034F90FF2AC310400D1E90023CDE9D7
:1047500000234FF6FF752E460ED09349DFF86063B5
:104760000A7848204243B01800F1E401B0F8E26052
:1047700008226846FDF74AF813F018FF02A800F077
:1047800011F8002C0EBF00226A463546BDF80E0017
:104790002946FFF739FF07F08CFD06B070BD000019
:1047A000C2FA032001461023072201200CF0D2BCDC
:1047B000F8B50446082001F099F801F09EF8DFF8FA
:1047C0000403794D01782B78DFF8F4224820434325
:1047D000D01880F8D41000F02DF810B100200DF0A2
:1047E0000EF800210020FFF739FF4C4F2978386878
:1047F0003826714301444878032818BF042802D1A1
:104800000FF02AFD01E00FF0BEFC20460DF0C0F8CD
:104810009B23FEF710FE9B2001F0DAF82978386818
:1048200016FB01F63044002202854285BDE8F140C6
:1048300001F064B8002012F0A5BE10B50446214670
:10484000002012F0F7FE08B98A2010BDFFF7FDFE28
:104850008078022818BF032801D0702010BD994825
:104860000470082001F041F80DF02FFD08B13D2043
:1048700010BD954A95490DF076F800B1A12010BD04
:1048800010B504460DF021FD08B13D2010BD00F02B
:104890000AF880F8D440FFF7CDFF10B100200CF0EB
:1048A000AEFF002010BD404A85491378482043439D
:1048B000C818704738B584B004466846FFF772FFE1
:1048C0009DF8050040B1042806DC00F0B3F89DF81F
:1048D0000410525D8A4201D0932001E02070002034
:1048E00005B030BD1FB504466846FFF75BFF0822E0
:1048F00002A92046FCF78AFF1FBD10B500F007F89B
:1049000073493820444310194278885C10BD03482D
:10491000634B02681C78704700000000A4CF03209E
:104920002DE9F843204E664F8146307848250C46E5
:104930006843391892B007F1E408A1F8E2904044C6
:104940001CB9082103F01EF803E008222146FCF7F9
:104950005DFF00F0C6FF01466A4600200CF0D9FF5B
:104960003078684308EB0001082204A8FCF74EFFEA
:10497000ADF80E9000F0B5FF01466A4600200CF03D
:10498000EEFE307815FB00F578194FF6FF71B0F8A0
:10499000E20088421EBF002C08EB05010FF082FEEA
:1049A00013B0BDE8F0830000D3FF03203EB50446FA
:1049B0003C4890F82010C8074FF6FF7508D500F066
:1049C0001AF8BDF80800A84202D000F00FF828B18C
:1049D00000212846FFF7A4FF00203EBD24B1BDF80A
:1049E00008006946FFF79CFF01203EBD0822FF2119
:1049F000684600F095B90A230A22694601200CF0A6
:104A0000A9BB38B5044633480DF0AEFB00F012F8F0
:104A10005119002C4A6B82F826401EBF2E49098886
:104A2000002906D04FF47A725143BDE8344003F0B8
:104A30005AB831BD20491A4B0A681D7838214D43B8
:104A400070471D48164A0168137838204343C81838
:104A5000416B91F82600704738B503F040F90546E0
:104A60001E490DF082FB0446FF2818BF00F045FFE9
:104A70000B4B11490020287038201D780A684543E7
:104A80005019416B0020FF2C81F8260000D003E074
:104A900031BD000070F80320BDE8314000F02EBFAA
:104AA000D3FF0320C0F70320E4F7032034D0032012
:104AB000E4FF03201CF80320A4CF032000F8FF0725
:104AC000E0F90320D1FF032041D30000B1470000EB
:104AD00044420100D8F603206AD3032000F70320E4
:104AE0006173736F63696174696F6E2E6300000098
:104AF00004600000FFFFFFFFFFFFFFFF20B5002164
:104B00000FF2F822CBB2D35C834205D0491CCDB260
:104B1000082DF7D3002020BD012020BD20B50021A5
:104B20000FF2E022CBB2D35C834205D0491CCDB258
:104B3000082DF7D3002020BD012020BD8B4A8C49D1
:104B4000137848204343C818B0F8E2007047874AFA
:104B50008749137848204343C818E4307047854894
:104B6000824A0168137838204343C818416B087E95
:104B7000704780487D4A0168137838204343C8183D
:104B8000C078704710B57B49784B0A681C7838218B
:104B90004C431119C87010BD2DE9F041734D754E8D
:104BA0002A783168382462430A440746977072486D
:104BB0000DF0DAFA8046022F70481ED131682B784A
:104BC0004A1C6343D75C042F18BF02F081FF306892
:104BD0002A78411C6243885C03281EBF0428404693
:104BE00002F076FF2978306814FB01F401194A6855
:104BF000D00054BF9024BC2415E00021017088F837
:104C000000100AF0A8FC31682A78481C14FB02F452
:104C1000005D032818BF042802D10FF01DFB01E03E
:104C20000FF0B1FA9124204603F0E2FE50B923467A
:104C300013224DA103200DF044FA2046BDE8F041B7
:104C400000F0C6BEBDE8F0814A48484A01681378C2
:104C500038204343C818807800F00F00704745485B
:104C6000424A0168137838204343C818817801F01C
:104C70000F01022901D1012070470020704710B5B3
:104C800092B00446FFF7EBFF20B900F03FF818BFE1
:104C9000932019D100F025FE00F097F8BDF802002E
:104CA00020819DF80100A07220469DF80010E1725D
:104CB000FFF718FE0020207304F1140104F1100026
:104CC0000CF014FBE081002012B010BD38B592B09A
:104CD00004460D46FFF7C3FF20B900F017F818BFD0
:104CE000932011D100F0FDFD01466A4620460CF0EC
:104CF00010FE9DF801002870002169709DF80000E9
:104D000000F01F00A870002013B030BD1948174AEA
:104D10000168137838204343C81881780329704705
:104D200010B5002300E05B1CDCB28C4205D210F809
:104D3000014B9442F7D0002010BD012010BD082186
:104D400013F042BF0B48094A0168137838204343E7
:104D5000C818807801281CBF3128332801D10120D0
:104D6000704700207047000042420000D3FF03203C
:104D7000E0F90320A4CF0320D0F60320D8F90320C4
:104D800070B5044692B02146002012F018FC05468A
:104D9000C0B268B900F0A5FD06466A46314600F08B
:104DA00016F88DF801406A46314600200CF0D7FC19
:104DB000E8B212B070BD80B592B000F092FD00F084
:104DC00004F89DF9010013B000BD01466A460020B9
:104DD0000CF09FBD80B592B000F083FDFFF7F5FFAA
:104DE0009DF8000013B000BD0120704780B5FFF7AB
:104DF000F1FF400918BF012002BD000000010203BD
:104E000004051D200203040508090A0B7047012050
:104E1000704701207047012070477047B5207047E8
:104E2000704770470020704700207047002070478F
:104E30000020704700207047002070470020704716
:104E4000002070470120704701207047B52070474F
:104E500000207047002070470020704700207047F6
:104E6000704700207047002070477047002070474F
:104E70008420704770477047704770470120704723
:104E80007047704770477047012070470020704797
:104E900000207047034800680078012808BF0220FE
:104EA0007047000034D703207047704770470020D8
:104EB0007047002070470020704700207047002096
:104EC00070470020704700207047002070477047EF
:104ED000B52070470020704700207047704770472A
:104EE000704770477047B5207047704770477047EC
:104EF0000020704770477047704770474FF6FF714A
:104F0000884207D0010A01D0002070473A49097849
:104F1000084000D001207047020A07D1364A1378B2
:104F2000002914BF184323EA00001070704783085B
:104F300000EB5373C108DB080122A0EBC30002FAA7
:104F400000F000EB012080B27047F8B504460D4632
:104F500016461F46FFF7D2FF58B13A463146202089
:104F600013F092FF1DB121A1202013F085FF2348EB
:104F70000480F1BD0CB480B50A4602AB012104E007
:104F80000CB480B50A4602AB0021FFF7DEFF01BC7E
:104F90005DF80CFB2DE9F04182B00024184DDFF8DC
:104FA000648013A713A6E0B2FFF7C1FFFFF7A6FFC7
:104FB000002814BF304638460090224658F8243066
:104FC0002946202013F04AFF202013F0A8FF641C7C
:104FD000052CE8DBBDE8F381FF220121064813F030
:104FE000B5BF054800210170704700000D0A0000A0
:104FF0006E6F00005945530088D303200EFF032035
:10500000049C03007CC8032080B5FFF790FFBDE837
:105010000440012180E780B5FFF789FFBDE8044027
:10502000002179E7F0B53F4B3E4CB0FBF3F304FBB6
:1050300013004FF46164B0FBF4F40C714FF461653C
:105040000C7905FB14053C26B5FBF6F54D71A0EB7C
:1050500004104C7906FB1400887101224FF4FA60A9
:1050600008808A70CA7000242D4801E00022641C68
:105070009C4236D28D78170003D0022D08BF1D2622
:1050800002D0461916F8016CCF78BE4203BF6D1CE2
:105090008D7001257D1CCD708D780D2DE7D10A888E
:1050A000521C0A8001258D7092B2550802EB95754D
:1050B000AD08B2EB8505D9D1642592FBF5F56426E0
:1050C00006FB15255DB94FF4C87592FBF5F54FF455
:1050D000C87606FB1522521E9241D20FC7E7012265
:1050E000C5E7F0BD10B588B0044605A9FFF79AFFE3
:1050F0009DF81A009DF817309DF816200A49039074
:1051000004949DF8190002909DF818000190BDF8D4
:105110001400009005480088FFF72CFF08B010BD70
:10512000E09E030080510100BC9E03000EFF03209F
:10513000FFF7D8BEFFF78CBE2DE9F04104460D46BF
:1051400016469846FFF7DAFE58B1002706E0BFB2D0
:105150004146EA5D2046FFF713FF7F1CB8B2B0421C
:10516000F5D3BDE8F081002B14BF3EA33EA3E3E7D7
:1051700038B504460D462846FBF730FE0246691C4A
:1051800007E038B504460D462846FBF72CFE0246DC
:10519000A91C204601B0BDE8304034A3CCE700B5DF
:1051A00087B0017806913E2241780591817804917B
:1051B000C17803910179029141790191817900913E
:1051C000C379304830490088FFF7DAFE07B000BDE8
:1051D000014600220220FFE72DE9F84F8A46934658
:1051E0000025814623A624A70FF28408254C05E05C
:1051F000424620883146FFF7C3FE6D1C4D450EDA4E
:105200002088012308220AEBC501FFF7ACFFBBF1A0
:10521000000F02D1681C4845EAD13A46E9E7BDE8EB
:10522000F18F2DE9F041174D04462888FFF766FEFF
:10523000A8B10120002611A70FF24408E1070AD502
:1052400018B928884146FFF79BFE28883246394620
:10525000FFF796FE00206408761C1B2EEEDBBDE8EF
:10526000F0810000257820002578000025630000EB
:1052700000000000202570000D0A000025640000D9
:105280002C2000000EFF0320949B03001CB5044655
:1052900020684079FBF792F888B920684188032993
:1052A0000DD0E27C0192009143790A4A0A4901201B
:1052B000FFF760FE01212046FBF75EFB07E020467A
:1052C00013F080FE01001CBF2046FBF755FB0120B8
:1052D00016BD00BF409C0300149C030000980021F1
:1052E00000E0491C8AB28242FBD370472DE9F04F9F
:1052F000044687B02068617DB0F80280E57CD4F870
:105300000890A78994F814A000290CBF402180219F
:105310008DF80C104079FBF751F880B9002D18BFBB
:10532000022D0CD0032D1CBF052DB8F1030F06D0A4
:10533000DFF838140120FFF71DFE0121CCE1E17BED
:10534000080003D0208A002800F01681DFF820240E
:1053500000201080607D00280CBF0820002009B1CB
:1053600040F00400FBF7A9FCE07B10B1208AFBF7BA
:10537000B3FCA07CDFF8FCB3FBF79FFC0AF1010053
:10538000A7EB0A01162D80B2ADF8001009EB0A0652
:1053900000F2F280DFE815F01700F800720030002C
:1053A00020017200EB002501F2002A012F013401D7
:1053B000BD004901F000F000F0005A0181015A01DE
:1053C0009001BD0049010120FBF777FC0AF10200C2
:1053D0008742C0F29B8000F0B5F9054600F0B7F9AE
:1053E00000F052FB18B900F0B2F905F0DFF80AF14D
:1053F00002001FFA80FAE9E700208DF80D00042072
:10540000FBF75BFC04E004985044C01C1FFA80FAD0
:10541000F81E824525DA00F095F909EB0A06834665
:10542000B0788DF80E00F11CA7EB0A00C21E00F048
:1054300069F9049008B9802609E000F068F9F01CC9
:1054400000F079F904F0CDFF00280646DBD000F02B
:1054500053F93046FBF731FC5846FBF73DFC802EF4
:10546000D1D19DF80D00002850D1E07B94F814A014
:10547000BF49002814BF04200220088000268DF8B0
:105480000D600420FBF719FC0AE0FBF716FC5846F8
:10549000FBF722FC761C05985044C01C1FFA80FACA
:1054A0000AF10300B84225DA00F04CF9834609EB13
:1054B0000A00049080788DF80E00A7EB0A00C21E47
:1054C0000498C11C00F01EF9059060B100F01FF9AE
:1054D0000498C01C00F02FF904F034FF0100D4D16F
:1054E00000F00AF9D7E78720FBF7E7FB5846FBF700
:1054F000F3FB761C052D0BD0F6B23EB99DF80D00DE
:1055000008B98021E8E00020FBF7D7FBFBF7EDF9B5
:10551000E5E00C2D0CBF0D201620FBF7CEFB00F0B4
:1055200011F9B7780C2D814603D11A2F06DB192704
:1055300004E0152D02D1142FA8BF13278C48008832
:105540000BEB00060020FBF7B8FB152D0CBF01206C
:105550000020029001974A46208A9DF80C30009066
:1055600041462068407904F057FF3070CEE720466E
:10557000FFF75AFC0028CBD18121ADE02046FFF790
:10558000A2FC0028C4D1F7E7B8F10A0F1DD17A4D6B
:105590002878D0B1E07B002804BFA7EB0A000828D8
:1055A00013D100F0CFF8002801BFB0780028F078C0
:1055B000E2280AD10AF104013A4689B24846FBF7CB
:1055C000E5FBFFF7B5FD002028703146BDF800204F
:1055D000404600F06CFA7DE000F0A8F8FFF788FC88
:1055E00078E000F0A3F8FFF721FC73E000F09EF8EC
:1055F000FFF76BFC6EE000F099F800F05AFA69E0F2
:1056000019F800503778208A01902B469DF80C003D
:1056100000903A46206840794146FBF75FFC2A46F5
:1056200039464046FFF704FC59E0317801B10121C9
:105630000646162D0CBF012000200090BB1B9BB21C
:1056400009EB06024046FFF7F5FB43E096F80090B1
:105650007778112D04D11220FBF72FFB002003E0F7
:105660001420FBF72AFB012041490D880191039783
:10567000C5F1510189B20091CDF808900BEB0501FD
:105680004B1C42462146FCF74EF80BF80500384902
:1056900037480088401C088038E7357805B1012577
:1056A00087421EDB00F03AF80020FFF717FE00F0FB
:1056B0001CF8FFF7C3FB0DE0357805B101258742E3
:1056C0000FDB00F02BF80120FFF708FE00F00DF8CB
:1056D000FFF7B2FB18B900212046FBF74DF9012076
:1056E00000E0002007B0BDE8F08FBFB200974B4646
:1056F000218A2A46404670479DF80D00401C8DF8CF
:105700000D0070479DF80E0092B213F0FDBF9DF89A
:105710000E009DF80C3002905A46704781443F1AA3
:10572000B8B200904B462A4641467047BDF800206B
:1057300031464046704701904146208A00902068DB
:10574000407970473A4651464846FBF723BB084824
:1057500000889DF80C30C0F1520080B201902A46BA
:10576000208A00904146206840797047489C030099
:1057700056FC0320E0D603206AFF03202DE9F04207
:105780007D4E7E4C002030703821206800F094F966
:105790007B4933782268087838256B43D05400223F
:1057A0003078216868430844427030782168684343
:1057B0000844827013F0E4FF327821686A430A4497
:1057C000107213F0DDFF327821686A430A44507288
:1057D000317820686B4A6943014410786A4AC8707E
:1057E0003378216817686B43C818684947610A789D
:1057F00002763078D4F800C0654A1268074615FB77
:1058000007F30CEB0301CA61624AD2F800902C2224
:10581000574309EB07020CF13407FA500CF056FC21
:105820003078216801F1340215FB00F551594A68BE
:105830000968BDE8F0420FF0CEBD80B592B06A466F
:10584000002100200CF065F808B1012018E0524951
:10585000524A0A910B925249524A0C910D92109160
:105860005148524A5249534B09900F9211910E934D
:105870006A46002100200BF072FF00B10120C0B287
:1058800013B000BD80B5002000F01AF828B1002048
:1058900000F005F808B1002002BDFF2002BD374826
:1058A000354A0168137838204343C81880780228A5
:1058B0001CBF1128432801D10120704700207047E8
:1058C0002E482D4A0168137838204343C818407881
:1058D00001281CBF0228032801D1012070470020A5
:1058E00070470020704700207047704700207047C5
:1058F00001207047704700207047704770470020B4
:10590000704780B500F020F820B10020FFF7D8FFE5
:1059100000B1012002BD80B500F016F808B10020EA
:1059200002BDFF2002BD10B5044600F00DF848B1DD
:1059300000F019F84078012818BF022802D10CB9EC
:10594000012010BD002010BD0020A8E780B5FFF7A2
:10595000FBFF30B100F007F84178032901DA00209D
:1059600002BDFF2002BD0548034A016813783820B4
:105970004343C81870470000D3FF0320A4CF03207F
:10598000ADD30320AED30320ACCF0320A1D303209B
:10599000B0CF0320A8CF032093F600006F4601008C
:1059A00049F20000013A020069F50000FFE400003E
:1059B000CF45010041F40000002100200CF0A1B807
:1059C0007047002818BF13F0FDBE704701F0D6BF26
:1059D00001F055BE33B585B005468DF80420FFF7BC
:1059E0008DF804462846FFF799F87CB10028BDF8E9
:1059F00018000FD1FFF7FAF98DF80000FF2804BF57
:105A000000218DF80010CDF808D016E0A8B106A846
:105A1000029012E0FFF7EAF98DF80000FF2804BFBA
:105A200000218DF800109DF80000BDF818108DF8C9
:105A30000C0003AAADF80E100292DDE901010A463E
:105A400001462846FDF708FB07B030BD80B502F0DF
:105A5000FFFEBDE80140FAF7EFBC80B502F0F7FEAB
:105A6000FAF716FDBDE80140FDF7D0BA80B5FFF7A3
:105A7000FCF913F0B8FFBDE8014013F0B7BF704761
:105A8000FFF719BA02F023BF1CB5059C0194049CD2
:105A90000094FCF7A1FE16BD38B504460D46FFF78D
:105AA00029FA29462046BDE8344013F0BCBFFFF771
:105AB00008BA02F0DABE70470022FBF715BF704744
:105AC000DFF8E814012008707047DFF8E0140A7866
:105AD00082421CBF0870FDF77CBA70470170090A4A
:105AE0004170801C704710B504460822FBF78EFEFB
:105AF00004F1080010BD2DE9F041044684B0207D7A
:105B00000A9F0D46800721781E464CBF4CF601487F
:105B10004CF6010808003B880CBF1E20202003EB38
:105B2000000C624508DA00920246DFF88414022075
:105B3000FFF726FA742045E009B948F0200801A8CB
:105B400001F07EFE41462846FFF7C8FFA189401CB0
:105B5000FFF7C4FF217D890703D5611CFFF7C3FF51
:105B600002E06189FFF7BAFF804601F07BFC014645
:105B70004046FFF7B3FF01A9FFF7B5FF0B21FFF781
:105B8000ADFF217841F0030100F8011B21780C29B9
:105B900004BF618AFFF7A2FF218AFFF79FFFE18917
:105BA000FFF79CFF3A8880463146FBF72FFE207DA9
:105BB000C00748BFB72005D438880B994044401B24
:105BC0000880002004B0BDE8F081F8B504460E4618
:105BD00015461621284601F0D5FE6078217801EBA4
:105BE00000204FF6DF7108404CF60141884219D180
:105BF00004F10D00871C41780278A88A02EB01218C
:105C000040F00200A981A88208223946681CFBF7EF
:105C1000FDFD307807F10801401A2618F6B2072E6C
:105C200006DA3FE04CF6010188423BD1E01DE1E796
